:03000000020006F5
:03005F0002000399
:0300030002006296
:100062001205111207C2E582FF24FC4025EF2F2F53
:100072009000767302008202008702008C020091D7
:100082001231D7800D1239FF800812328D8003128F
:1000920035E6123C68AF82BFE7F81201E280C4AED7
:1000A20082AF837C007D00C3EC9EED9F50147A0AE0
:1000B2007B001ABAFF011BEA4B70F70CBC00E80D7B
:1000C20080E5227E007F00C2A4D2A5C2A67580FF71
:1000D200D2A6E58030E70B0EBE00010FBE0AE8BFD4
:1000E20000E522AF82C0071200C5D007C2A4C2A594
:1000F200C2A68F809000011200A1D2A69000011228
:1001020000A1C2A622AF82C0071200C5D007D2A4A6
:10011200C2A5C2A68F809000011200A1D2A69000B3
:10012200011200A1C2A622AF827D087E007401B531
:100132000C06E4B50D02800280047D107E0074B8C6
:100142002FFF74402508FC7B00EB2FF582C007C00F
:1001520006C005C004C0031200E5D003D0048C829F
:10016200C004C0031200E5D003D004D005D006D0ED
:1001720007750E00A80E7900C3E89DE964808EF031
:1001820063F08095F0504F8B657566008D828E838B
:10019200C007C006C005C004C003C001C000123CB5
:1001A200C6E5828583F0D000D00128F8E935F0F960
:1001B200E82509F8E9350AF9AA0B888289838AF0C9
:1001C200123D59F582120107D003D004D005D006A2
:1001D200D007050E809E0BBB0200500302014B228A
:1001E200C2A1C2A27F0074B82FF582C0071200E537
:1001F200D0077E0074402EF582C007C0061200E5CB
:10020200758200120107D006D0070EBE400040E4FE
:100212000FBF080040D022C2A1D2A2750947750AB9
:1002220044750B80750820E4F50CF50DF58212017A
:1002320029750927750A43750B80750828E4F50CA2
:10024200F50DF582120129750997750A43750B8020
:10025200750830E4F50CF50DF582120129750907D0
:10026200750A43750B80750838E4F50CF50DF582B7
:10027200120129750927750A42750B80750810E469
:10028200F50CF50D7582021201297509E7750A410F
:10029200750B80750818E4F50CF50D7582021201D4
:1002A200297509E7750A3D750B80750820750C01E3
:1002B200750D00758202120129750997750A41753B
:1002C2000B80750830750C01750D007582021201E4
:1002D20029750967750A3E750B80750810750C0142
:1002E200750D00758204120129750987750A3E751C
:1002F2000B80750820750C01750D007582041201C2
:10030200297509B7750A40750B80750830750C019F
:10031200750D00758204120129750987750A3F75EA
:100322000B80750830E4F50CF50D75820412012975
:100332007509F7750A41750B80750828E4F50CF507
:100342000D7582061201297509D7750A41750B8050
:10035200750830E4F50CF50D758206120129750950
:10036200E7750A41750B80750838E4F50CF50D75D3
:100372008206120129D2A1C2A27509C7750A437564
:100382000B80E4F508F50CF50DF5821201297509CB
:10039200A7750A43750B80750808E4F50CF50DF591
:1003A20082120129750927750A43750B8075081099
:1003B200E4F50CF50DF5821201297509B7750A41AC
:1003C200750B80750818E4F50CF50DF582120129FC
:1003D200750907750A3E750B80750800750C017565
:1003E2000D00758202120129750927750A3E750BE7
:1003F20080750810750C01750D00758202120129B5
:10040200750947750A3E750B80750820750C0175D4
:100412000D007582021201297509A7750A3E750B36
:1004220080750800750C01750D0075820412012992
:100432007509C7750A3E750B80750810750C017534
:100442000D007582041201297509E7750A3E750BC4
:1004520080750820750C01750D0075820412012942
:10046200750957750A42750B80E4F508F50CF50D10
:100472007582061201297509C7750A41750B8075C7
:100482000808E4F50CF50D758206120129750907B5
:10049200750A42750B80750810E4F50CF50D75822E
:1004A200061201299003E81200A19003E81200A1AC
:1004B2009003E81200A19003E81200A10201E29069
:1004C200000A1200A1D2A1D2A290000A1200A175C4
:1004D200823E1200E57582B81200E57582C01200F4
:1004E200E57582401200E575823F1200E590000A30
:1004F2001200A1C2A1C2A290000A1200A11201E23E
:0F05020090000A1200A11202199001F40200A148
:103DE700908887FC848480FE2222222222E202001D
:103DF700806018070830007F44444444444740002B
:103E0700404042CC0040404040FF404040404000DE
:103E17000000007F2010000000FF000000000000ED
:103E27000804F3525652525054535256F2020200AB
:103E3700101097553D1515151515FD151710100080
:103E470080809E9292929EE0809EB2D2929E800047
:103E57000808F4949292F10001F2929494F8080001
:103E6700008060F80740300FF888888888080800C5
:103E7700010000FF00000000FF0808080808000014
:103E8700202024242424BF64243428242220200032
:103E970010080402FF494949494949FF0000000049
:103EA70000028282828282FE8282828282020000F5
:103EB700404040404040407F4040404040404000FC
:103EC70000028242320E0202024282423E0000009B
:103ED700020100FE4242424242424242FE000000CC
:103EE7000008884828180FE808080808080800008C
:103EF700002011090541817F0101050911200000FA
:103F0700080808F80808081010FF101010F0000043
:103F17001030101F088848300E014080403F0000D5
:103F270008CC4A49484ACC18007F88888482E00038
:103F370000FF121252927F00007E88888482E00080
:103F4700404042CC00504EC8487FC8484840000017
:103F57000040201F20504C4340404F50505C4000D1
:103F67001010FF100082864A52A2524A86808000B3
:103F770042827F010010121212FF1212121000006B
:103F8700000000C0C000000000000030300000004A
:103F9700101010D0FF901000FE22222222FE0000F7
:103FA70008040300FF000300FF42424242FF0000F3
:103FB700101010FF1010F00000F8080808F80000B3
:103FC7008040300F40807F00007F2020207F00004E
:103FD70040484A4AEA0A0AFE0909E949492880008D
:103FE700222211110B0402FF0204091212222300DC
:103FF70000082848880808FF8808894A2808000018
:10400700001010080442817F00010204081010000C
:104017004042CC0008C8090E08F8080C0BC8080075
:1040270040201F204063524A4643424242474000D5
:104037001010D0FF9014E4AFA4A4A4AFE4040000D0
:10404700040300FF00894B2A1A0E1A2A4B888000A6
:10405700008060F80720222C20FF2028242200005F
:10406700010000FF0202020202FF02020202020036
:1040770000FE225A8608104424F42C2724E4040066
:1040870000FF040887413F4080BF8595A59F8000BA
:10409700808080808080808090A0E0C0C080800089
:1040A70000000000000000000402030101000000FE
:1040B70000000000000000000000000000000000F9
:1040C70000000000000000000000000000000000E9
:1040D7000000000040301CFF1C30400000000000C2
:1040E70000000000000000FF0000000000000000CA
:1040F700008080C0C0E0A090808080808080808029
:10410700000000010103020400000000000000009D
:104117004042CC0000445454547F5454544440000B
:1041270000007F201000FF15151555957F00000032
:1041370088681FC80810C85452D1129408D01000BC
:10414700091909FF0500FF1292FF005F807F000039
:10415700000000000001E21CE00000000000000079
:10416700804020100C03000000030C3040808000CA
:104177000808080808F8898E8888888808080800C9
:1041870000804020180700004080403F00000000EA
:1041970000FE0222DA0608C8B88FE8888888080077
:1041A70000FF0810080708080808FF0808080800A3
:1041B700000000F80000000000000033300000009D
:1041C7000000000000000000003030000000000088
:1041D70000E010080810E000000F102020100F006A
:1041E700001010F8000000000020203F20200000F1
:1041F7000070080808887000003028242221300049
:1042070000300888884830000018202020110E0050
:104217000000C02010F8000000070424243F2400F9
:1042270000F80888880808000019212020110E00CE
:1042370000E0108888180000000F112020110E00E0
:1042470000380808C83808000000003F00000000D8
:104257000070880808887000001C222121221C0099
:1042670000E010080810E0000000312222110F00C2
:1042770000808080808080800000000000000000B7
:10428700404040404040400004040404040404004B
:1042970000000000FF00000000000000FF00000019
:1042A700242418FF18242400000000000000000048
:1042B70000080808003E00000000000000000000A1
:1042C700000000F0000000000101011F01010100D2
:1042D700404080F0804040000202010F01020200CE
:1042E7000000C038E0000000203C230202273820ED
:1042F70008F8888888700000203F202020110E00D1
:10430700C0300808080838000718202020100800C7
:1043170008F808080810E000203F202020100F00B0
:1043270008F88888E8081000203F2020232018007C
:1043370008F88888E8081000203F200003000000E4
:10434700C03008080838000007182020221E020085
:1043570008F808000008F808203F210101213F2044
:10436700000808F8080800000020203F202000006F
:1043770000000808F8080800C08080807F0000005F
:1043870008F888C028180800203F20012638200098
:1043970008F8080000000000203F202020203000FF
:1043A70008F8F800F8F80800203F003F003F200019
:1043B70008F830C00008F808203F200007183F0021
:1043C700E01008080810E0000F10202020100F0050
:1043D70008F808080808F000203F21010101000043
:1043E700E01008080810E0000F18242438504F0088
:1043F70008F8888888887000203F2000030C302048
:1044070000708808080838000038202121221C0085
:10441700180808F8080818000000203F20000000CE
:1044270008F808000008F808001F202020201F00B7
:104437000878880000C83808000007380E01000017
:10444700F80800F80008F800033C0700073C0300E1
:10445700081868808068180820302C03032C302047
:104467000838C800C83808000000203F20000000B6
:1044770010080808C838080020382621202018000E
:1005110075B0001204C1023C43C2A1D2A275090701
:10052100750A3F750B80750800750C01750D007516
:100531008200120129750927750A3F750B8075081C
:1005410010750C01750D007582001201297509479E
:10055100750A3F750B80750820750C01750D0075C6
:100561008200120129750967750A3F750B807508AC
:1005710030750C01750D00758200120129750997FE
:10058100750A40750B80750800750C01750D0075B5
:100591008202120129750997750A3F750B8075084A
:1005A10010750C01750D007582021201297509B7CC
:1005B100750A3F750B80750820750C01750D007566
:1005C10082021201297509B7750A40750B807508F9
:1005D10030750C01750D007582021201297509B77C
:1005E100750A40750B80750800750C01750D007555
:1005F1008204120129750957750A40750B80750827
:1006010010750C01750D00758204120129750977A9
:10061100750A40750B80750820750C01750D007504
:1006210082041201297509B7750A40750B80750896
:1006310030750C01750D00758204120129D2A1C219
:10064100A27509B7750A40750B80750800750C0114
:10065100750D007582001201297509B7750A40757B
:100661000B80750810750C01750D00758200120163
:10067100297509B7750A40750B80750820750C013D
:10068100750D007582001201297509B7750A40754B
:100691000B80750830750C01750D00758200120113
:1006A100297509B7750A40750B80750800750C012D
:1006B100750D00758202120129750997750A3F753A
:1006C1000B80750810750C01750D00758202120101
:1006D100297509D7750A3F750B80750820750C01BE
:1006E100750D007582021201297509B7750A4075E9
:1006F1000B80750830750C01750D007582021201B1
:10070100297509B7750A40750B80750800750C01CC
:10071100750D007582041201297509F7750A3F7577
:100721000B80750810750C01750D0075820412019E
:1007310029750937750A40750B80750820750C01FC
:10074100750D007582041201297509B7750A407586
:100751000B80750830750C01750D0075820412014E
:10076100297509B7750A40750B80750800750C016C
:10077100750D007582061201297509B7750A407554
:100781000B80750810750C01750D0075820612013C
:10079100297509B7750A40750B80750820750C011C
:1007A100750D007582061201297509B7750A407524
:1007B1000B80750830750C01750D007582060201FC
:1007C100297F007E00C007C00612051AD006D00797
:1007D100C007C006123C68AD82900064C0051200DB
:1007E100A1D005D006D007BDE70302094BBDEB023E
:1007F100800302094D8F047D008C828D83A3756572
:1008010004756600C006123D75AC82D0068C07C225
:10081100A1D2A27509B7750A40750B8075080075DC
:100821000C01750D00758202C007C0061201297501
:1008310009B7750A40750B80750800750C01750DB7
:10084100007582041201297509B7750A40750B807C
:10085100750800750C01750D00758206120129D20B
:10086100A1C2A27509B7750A40750B80750800759C
:100871000C01750D007582021201297509B7750AFF
:1008810040750B80750800750C01750D00758204AB
:10089100120129D006D007EF24FC500302094DEFC5
:1008A1002F2F9008A7730208B30208D90208FF028C
:1008B1000925C2A1D2A2750997750A40750B8075E9
:1008C1000800750C01750D00758202C007C0061283
:1008D1000129D006D0078074C2A1D2A275099775EB
:1008E1000A40750B80750800750C01750D00758245
:1008F10004C007C006120129D006D007804ED2A13C
:10090100C2A2750997750A40750B80750800750CB0
:1009110001750D00758202C007C006120129D006BB
:10092100D0078028D2A1C2A2750997750A40750B1C
:1009310080750800750C01750D00758204C007C033
:1009410006120129D006D00780027E01BE01028075
:10095100030207D18F8222AE82AF83D2A1C2A275D8
:1009610009B7750A40750B80750830750C01750D56
:1009710000758206C007C006120129D006D007758E
:10098100650A7566008E828F83C007C006123DAB73
:10099100AC82E583C454F0CCC4CC6CCC54F0CC6CA8
:1009A100FDEC24D7FCED3441FD8C098D0A750B80DB
:1009B100750830E4F50CF50D758206120129D00693
:1009C100D00775650A7566008E828F83123D75AEFC
:1009D10082E583C454F0CEC4CE6ECE54F0CE6EFF09
:1009E100EE24D7FEEF3441FF8E098F0A750B807517
:1009F1000838E4F50CF50D758206020129AE82AFC7
:100A010083C2A1D2A27509B7750A40750B8075081A
:100A110018750C01750D00758206C007C00612011C
:100A2100297509B7750A40750B80750830750C0179
:100A3100750D00758206120129D2A1C2A27509B7EE
:100A4100750A40750B80750820750C01750D0075D0
:100A510082001201297509B7750A40750B80750866
:100A610020750C01750D007582021201297509B7F7
:100A7100750A40750B80750820750C01750D0075A0
:100A810082041201297509B7750A40750B80750832
:100A910008750C01750D00758206120129D006D06A
:100AA10007BE0105BF00028010BE0205BF00028023
:100AB10026BE035DBF005A803CD2A1C2A27509F7D0
:100AC100750A40750B80750820750C01750D007550
:100AD1008200120129803AD2A1C2A27509F7750AD2
:100AE10040750B80750820750C01750D007582022B
:100AF100120129801CD2A1C2A27509F7750A40759D
:100B01000B80750820750C01750D007582041201AA
:100B1100297401B54506E4B5460280177402B5454E
:100B210006E4B5460280287403B54506E4B54602DD
:100B3100803922C2A1D2A27509D7750A40750B80EE
:100B4100750818750C01750D00758206020129C220
:100B5100A1D2A27509D7750A40750B807508307549
:100B61000C01750D00758206020129D2A1C2A27580
:100B710009D7750A40750B80750808750C01750D4C
:100B8100007582060201297F0075650074FD2565E7
:100B9100403CE56575F006A4FD240FFCED2421FB26
:100BA100ED2433FD8F02BA0300501DEA2AFE2CF812
:100BB1007600087600EE2BF87600087600EE2DF828
:100BC10076000876000A80DE8A07056580BE2285E8
:100BD100824985834A85F04BE4123CABA3E4123C85
:100BE100AB74022549FAE4354AFBAC4B8A828B830C
:100BF1008CF0E4123CABA3E4123CAB74042549FA3B
:100C0100E4354AFBAC4B8A828B838CF0E4123CAB1B
:100C1100A3E4123CAB74062549FAE4354AFBAC4B1C
:100C21008A828B838CF0E4123CABA3E4123CAB745C
:100C3100062549FAE4354AFBAC4B74022AF8E43B39
:100C4100F98C07888289838FF0E4123CABA3E4120C
:100C51003CAB74042AFAE43BFB8A828B838CF0E47C
:100C6100123CABA3E4123CAB740C2549FDE4354ABC
:100C7100FEAF4B8D828E838FF0E4123CABA3E41266
:100C81003CAB740C2549FDE4354AFEAF4B74022D93
:100C9100FAE43EFB8F048A828B838CF0E4123CAB36
:100CA100A3E4123CAB74042DFDE43EFE8D828E83E1
:100CB1008FF0E4123CABA3E4123CAB1201E2C2A1FF
:100CC100D2A27401B54706E4B548028002801775C7
:100CD10009E7750A42750B80E4F508F50CF50DF589
:100CE1008212012980157509F7750A42750B80E496
:100CF100F508F50CF50DF582120129750987750ABC
:100D010042750B80750808E4F50CF50DF5821201AA
:100D110029750997750A42750B80750810E4F50C61
:100D2100F50DF582120129750997750A42750B8037
:100D3100750810E4F50CF50D75820212012975098B
:100D410097750A42750B80750810E4F50CF50D7561
:100D510082041201297509D7750A40750B8075083F
:100D610018750C01750D00758206120129D2A1C2F8
:100D7100A2750997750A42750B80750818E4F50C80
:100D8100F50DF582120129750997750A42750B80D7
:100D9100750818E4F50CF50D758202120129750923
:100DA10097750A42750B80750818E4F50CF50D75F9
:100DB10082041201297509F7750A40750B807508BF
:100DC10020750C01750D007582001201299000003B
:100DD100120958E4F54CF54D7C007D00C005C004B6
:100DE100123C68AB82D004D005BB7703020FBBBBBA
:100DF1007B03020F8FBB7D03020F0ABB7E03020E32
:100E010081BBBB03020F63BBBD03020EDDBBBE0290
:100E11008041BBDB03020F37BBDD03020EB0BBDE3B
:100E2100028003020FD68C658D6690000AC0031202
:100E31003CC6AC82AD8374032CFCE43DFD75656456
:100E41007566008C828D83123D75AC82AD83D003B3
:100E5100020FD68C658D6690000AC003123CC6ACA9
:100E610082AD8374022CFCE43DFD756564756600FA
:100E71008C828D83123D75AC82AD83D003020FD677
:100E81008C658D6690000AC003123CC6AC82AD83AE
:100E9100D0030CBC00010D7565647566008C828DF4
:100EA10083C003123D75AC82AD83D003020FD68C93
:100EB100658D6690000AC003123CC6AC82AD837496
:100EC100062CFCE43DFD7565647566008C828D839E
:100ED100123D75AC82AD83D003020FD68C658D6651
:100EE10090000AC003123CC6AC82AD8374052CFC91
:100EF100E43DFD7565647566008C828D83123D75D8
:100F0100AC82AD83D003020FD68C658D6690000A4A
:100F1100C003123CC6AC82AD8374042CFCE43DFDDD
:100F21007565647566008C828D83123D75AC82ADEA
:100F310083D003020FD68C658D6690000AC0031220
:100F41003CC6AC82AD8374092CFCE43DFD7565643F
:100F51007566008C828D83123D75AC82AD83D003A2
:100F610080738C658D6690000AC003123CC6AC820A
:100F7100AD8374082CFCE43DFD7565647566008CD9
:100F8100828D83123D75AC82AD83D00380478C6521
:100F91008D6690000AC003123CC6AC82AD83740713
:100FA1002CFCE43DFD7565647566008C828D8312B1
:100FB1003D75AC82AD83D003801B8C658D6690003E
:100FC1000AC003123CC6756564756600123D75ACB6
:100FD10082AD83D0038C828D83C005C004C003120F
:100FE1000958D003D004D005BBE7028003020DDD10
:100FF100756503756600854C82854D83C005C00407
:10100100123DAB858265858366900006123CC6AAB7
:1010110082AB83EA2549FAEB354AF9AB4B75650397
:10102100756600854C82854D83C003C002C00112E4
:101031003D75A882AF83D001D002D003D004D00582
:10104100EFC825E0C833FFE82AFAEF39F98A828927
:10105100838BF0EC123CABA3ED123CAB900000C0D3
:1010610005C004120958D004D005E54D30E703024C
:1010710015AEC37408954CE46480854DF063F0802F
:1010810095F050030215AEE54C240B83F582E54C37
:10109100240D83F583E473AA39C857E8790A9B2C98
:1010A100101111121213141415C2A1D2A275650ADE
:1010B1007566008C828D83C005C004123DABAE8283
:1010C100E583C454F0CEC4CE6ECE54F0CE6EFFEEA6
:1010D10024D7FEEF3441FF8E098F0A750B80750806
:1010E10018E4F50CF50DF582120129D004D005752F
:1010F100650A7566008C828D83123D75AE82E5832B
:10110100C454F0CEC4CE6ECE54F0CE6EFFEE24D7D2
:10111100FEEF3441FF8E098F0A750B80750820E4BC
:10112100F50CF50DF5821201297545027546009001
:1011310000011209FE0215AEC2A1D2A275650A759F
:1011410066008C828D83C005C004123DABAE82E582
:1011510083C454F0CEC4CE6ECE54F0CE6EFFEE24D6
:10116100D7FEEF3441FF8E098F0A750B8075083069
:10117100E4F50CF50DF582120129D004D005756551
:101181000A7566008C828D83123D75AE82E583C43B
:1011910054F0CEC4CE6ECE54F0CE6EFFEE24D7FE08
:1011A100EF3441FF8E098F0A750B80750838E4F51D
:1011B1000CF50DF582120129754503754600900065
:1011C100011209FE0215AED2A1C2A275650A7566A9
:1011D100008C828D83C005C004123DABAE82E583D5
:1011E100C454F0CEC4CE6ECE54F0CE6EFFEE24D7F2
:1011F100FEEF3441FF8E098F0A750B80750808E4F4
:10120100F50CF50DF582120129D004D00575650A9A
:101211007566008C828D83123D75AE82E583C45460
:10122100F0CEC4CE6ECE54F0CE6EFFEE24D7FEEFDC
:101231003441FF8E098F0A750B80750810E4F50C97
:10124100F50DF582120129754501754600900002E0
:101251001209FE0215AEC2A1D2A275650A75660019
:101261008C828D83C005C004123DABAE82E583C480
:1012710054F0CEC4CE6ECE54F0CE6EFFEE24D7FE27
:10128100EF3441FF8E098F0A750B80750818E4F55C
:101291000CF50D758202120129D004D00575650A7D
:1012A1007566008C828D83123D75AE82E583C454D0
:1012B100F0CEC4CE6ECE54F0CE6EFFEE24D7FEEF4C
:1012C1003441FF8E098F0A750B80750820E4F50CF7
:1012D100F50D7582021201297545027546009000CF
:1012E100021209FE0215AEC2A1D2A275650A756687
:1012F100008C828D83C005C004123DABAE82E583B4
:10130100C454F0CEC4CE6ECE54F0CE6EFFEE24D7D0
:10131100FEEF3441FF8E098F0A750B80750830E4AA
:10132100F50CF50D758202120129D004D005756501
:101331000A7566008C828D83123D75AE82E583C489
:1013410054F0CEC4CE6ECE54F0CE6EFFEE24D7FE56
:10135100EF3441FF8E098F0A750B80750838E4F56B
:101361000CF50D7582021201297545037546009031
:1013710000021209FE0215AED2A1C2A275650A755C
:1013810066008C828D83C005C004123DABAE82E540
:1013910083C454F0CEC4CE6ECE54F0CE6EFFEE2494
:1013A100D7FEEF3441FF8E098F0A750B807508084F
:1013B100E4F50CF50D758202120129D004D00575F2
:1013C100650A7566008C828D83123D75AE82E58358
:1013D100C454F0CEC4CE6ECE54F0CE6EFFEE24D700
:1013E100FEEF3441FF8E098F0A750B80750810E4FA
:1013F100F50CF50D7582021201297545017546003E
:101401009000031209FE0215AEC2A1D2A275650AAF
:101411007566008C828D83C005C004123DABAE821F
:10142100E583C454F0CEC4CE6ECE54F0CE6EFFEE42
:1014310024D7FEEF3441FF8E098F0A750B807508A2
:1014410018E4F50CF50D758204120129D004D005BC
:1014510075650A7566008C828D83123D75AE82E5D5
:1014610083C454F0CEC4CE6ECE54F0CE6EFFEE24C3
:10147100D7FEEF3441FF8E098F0A750B8075082066
:10148100E4F50CF50D7582041201297545027546C6
:10149100009000031209FE0215AEC2A1D2A2756529
:1014A1000A7566008C828D83C005C004123DABAE07
:1014B10082E583C454F0CEC4CE6ECE54F0CE6EFF1E
:1014C100EE24D7FEEF3441FF8E098F0A750B80752C
:1014D1000830E4F50CF50D758204120129D004D011
:1014E1000575650A7566008C828D83123D75AE8225
:1014F100E583C454F0CEC4CE6ECE54F0CE6EFFEE72
:1015010024D7FEEF3441FF8E098F0A750B807508D1
:1015110038E4F50CF50D7582041201297545037542
:1015210046009000031209FE0215AED2A1C2A275B7
:10153100650A7566008C828D83C005C004123DABBF
:10154100AE82E583C454F0CEC4CE6ECE54F0CE6EDE
:10155100FFEE24D7FEEF3441FF8E098F0A750B8011
:10156100750808E4F50CF50D758204120129D00403
:10157100D00575650A7566008C828D83123D75AE46
:1015810082E583C454F0CEC4CE6ECE54F0CE6EFF4D
:10159100EE24D7FEEF3441FF8E098F0A750B80755B
:1015A1000810E4F50CF50D758204120129054CE4CF
:1015B100B54C02054DC3E54C9409E54D648094801A
:1015C1005003020DD92285825085835185F052C284
:1015D100A1D2A27401B54E06E4B54F028033740264
:1015E100B54E07E4B54F0302166C7403B54E07E41C
:1015F100B54F030216C67404B54E07E4B54F030296
:10160100170A7405B54E07E4B54F030217630217B5
:10161100A47509E7750A42750B80E4F508F50CF528
:101621000DF5821201297509C7750A42750B80757E
:101631000808E4F50CF50DF5821201297509F77515
:101641000A42750B80750810E4F50CF50DF5821250
:101651000129750987750A42750B80750818E4F52B
:101661000CF50DF5821201290217A47509E7750A17
:1016710042750B80E4F508F50CF50DF58212012990
:101681007509D7750A42750B80750808E4F50CF5E4
:101691000DF5821201297509F7750A42750B8075DE
:1016A1000810E4F50CF50DF582120129750987750D
:1016B1000A42750B80750818E4F50CF50DF58212D8
:1016C10001290217A47509E7750A42750B80E4F533
:1016D10008F50CF50DF5821201297509B7750A4255
:1016E100750B80750808E4F50CF50DF582120129DA
:1016F100750987750A42750B80750818E4F50CF5B4
:101701000DF5821201290217A4750997750A427510
:101711000B80E4F508F50CF50DF582120129750928
:10172100E7750A42750B80750808E4F50CF50DF5AF
:1017310082120129750997750A42750B8075081087
:10174100E4F50CF50DF582120129750987750A4238
:10175100750B80750818E4F50CF50DF58212012959
:1017610080417509E7750A42750B80E4F508F50CAF
:10177100F50DF5821201297509A7750A42750B80CD
:10178100750808E4F50CF50DF58212012975098734
:10179100750A42750B80750818E4F50CF50DF58294
:1017A100120129C2A1D2A2750997750A42750B804F
:1017B100E4F508F50CF50D758202120129750997FA
:1017C100750A42750B80E4F508F50CF50D75820478
:1017D100120129750997750A42750B80E4F508F520
:1017E1000CF50D758206120129D2A1C2A2750997C5
:1017F100750A42750B80750838E4F50CF50D758294
:1018010002120129750997750A42750B807508380E
:10181100E4F50CF50D758204120129750997750A15
:1018210042750B80750838E4F50CF50D75820612CA
:101831000129E4F553F554756503756600855382F6
:10184100855483123DAB85826585836690000612BF
:101851003CC6A982AA83E92550F8EA3551FBAC526E
:10186100756503756600855382855483C004C00382
:10187100C002C001C000123D75AE82AF83D000D05E
:1018810001D002D003D004EFCE25E0CE33FFEE2805
:10189100F8EF3BFB88828B838CF0123D59F8A31241
:1018A1003D59FB7565E875660388828B83C007C067
:1018B10006C003C002C001C000123DAB8582558540
:1018C1008356D000D001D002D003756564756600DF
:1018D10088828B83C003C002C001C000123DAB856A
:1018E100825D85835E85556585566690000A123C4A
:1018F100C6AC82AD83D000D001D002D003E55DC378
:101901009CF557E55E9DF55875650A7566008882F8
:101911008B83C003C002C001C000123DAB85825D54
:1019210085835E855565855666900064123CC6AC1C
:1019310082AD83E55DC39CF55DE55E9DF55E8557F2
:101941006585586690000A123CC6AC82AD83D00012
:10195100D001D002D003E55DC39CF559E55E9DF54C
:101961005A75650A75660088828B83C003C002C000
:1019710001C000123D7585825B85835CD000D0017A
:10198100D002D003D006D007C3E89419EB64809449
:101991007C4031E92550F8EA3551FBAD52EE28F88B
:1019A100EF3BFB88828B838DF0123D59F8A3123DEA
:1019B10059FBC3740F9874A78BF063F08095F040C6
:1019C10003021D88E55430E7030231BEC374089554
:1019D10053E464808554F063F08095F05003023144
:1019E100BEE553240B83F582E553240D83F583E48F
:1019F100730467CD3093F95CBF251A1A1A1B1B1BA0
:101A01001C1C1DC2A1D2A27509C7750A43750B80A2
:101A1100750808E4F50CF50D7582021201297509A6
:101A210037750A44750B80750810E4F50CF50D75D2
:101A31008202120129750927750A43750B80750801
:101A410018E4F50CF50D7582021201297509E77587
:101A51000A42750B80750820E4F50CF50D758202BC
:101A61001201290231BEC2A1D2A27509C7750A436A
:101A7100750B80750830E4F50CF50D7582021201C5
:101A810029750937750A44750B80750838E4F50C1A
:101A9100F50D758202120129D2A1C2A2750927751D
:101AA1000A43750B80E4F508F50CF50D75820212F9
:101AB10001297509E7750A42750B80750808E4F577
:101AC1000CF50D7582021201290231BED2A1C2A20A
:101AD1007509C7750A43750B80750808E4F50CF59F
:101AE1000D758202120129750937750A44750B803B
:101AF100750810E4F50CF50D7582021201297509BE
:101B010027750A43750B80750818E4F50CF50D75FA
:101B110082021201297509E7750A42750B80750861
:101B210020E4F50CF50D7582021201290231BEC2C5
:101B3100A1D2A27509C7750A43750B80750818E40F
:101B4100F50CF50D758202120129750937750A44E4
:101B5100750B80750820E4F50CF50D7582021201F4
:101B610029750927750A43750B80750828E4F50C5A
:101B7100F50D7582021201297509E7750A42750B87
:101B810080750830E4F50CF50D7582021201290209
:101B910031BEC2A1D2A27509C7750A43750B807502
:101BA1000830E4F50CF50D75820412012975093729
:101BB100750A44750B80750838E4F50CF50D7582CE
:101BC10004120129D2A1C2A2750927750A43750B16
:101BD10080E4F508F50CF50D7582041201297509EB
:101BE100E7750A42750B80750808E4F50CF50D756B
:101BF10082041201290231BED2A1C2A27509C775A0
:101C01000A43750B80750818E4F50CF50D7582040F
:101C1100120129750937750A44750B80750820E48E
:101C2100F50CF50D758204120129750927750A4312
:101C3100750B80750828E4F50CF50D758204120109
:101C4100297509E7750A42750B80750830E4F50CB2
:101C5100F50D7582041201290231BEC2A1D2A2750D
:101C610009C7750A43750B80750808E4F50CF50D75
:101C7100758206120129750937750A44750B80753D
:101C81000810E4F50CF50D75820612012975092776
:101C9100750A43750B80750818E4F50CF50D75820E
:101CA100061201297509E7750A42750B807508202E
:101CB100E4F50CF50D7582061201290231BEC2A1AF
:101CC100D2A27509C7750A43750B80750830E4F512
:101CD1000CF50D758206120129750937750A4475CF
:101CE1000B80750838E4F50CF50D75820612012993
:101CF100D2A1C2A2750927750A43750B80E4F508C4
:101D0100F50CF50D7582061201297509E7750A4270
:101D1100750B80750808E4F50CF50D758206120146
:101D2100290231BED2A1C2A27509C7750A43750B3A
:101D310080750818E4F50CF50D75820612012975F8
:101D41000937750A44750B80750820E4F50CF50D0B
:101D5100758206120129750927750A43750B80756D
:101D61000828E4F50CF50D7582061201297509E7BD
:101D7100750A42750B80750830E4F50CF50D758216
:101D8100061201290231BEE55430E7030231BEC318
:101D910074089553E464808554F063F08095F050A5
:101DA100030231BEE553240B83F582E553240D83F1
:101DB100F583E473C7F83E6FA0E617488E1D1F2216
:101DC1002426282B2D2FC2A1D2A2E92550FBEA35CA
:101DD10051FCAD52EE2BFBEF3CFC8B828C838DF0E2
:101DE100123D59FBA3123D59FC30E703021ECFE51A
:101DF100554556602EAC55E556C454F0CCC4CC6C58
:101E0100CC54F0CC6CFDEC24D7FCED3441FD8C09B5
:101E11008D0A750B80750808E4F50CF50D758202C5
:101E2100120129E55745587006E5554556602EAC17
:101E310057E558C454F0CCC4CC6CCC54F0CC6CFDF8
:101E4100EC24D7FCED3441FD8C098D0A750B8075AE
:101E51000810E4F50CF50D758202120129E55945CA
:101E61005A700CE55745587006E5554556602EAC3D
:101E710059E55AC454F0CCC4CC6CCC54F0CC6CFDB4
:101E8100EC24D7FCED3441FD8C098D0A750B80756E
:101E91000818E4F50CF50D758202120129AC5BE519
:101EA1005CC454F0CCC4CC6CCC54F0CC6CFDEC24B0
:101EB100D7FCED3441FD8C098D0A750B8075082026
:101EC100E4F50CF50D7582021201290231BEE557C8
:101ED10045587003021F55750977750A42750B80C5
:101EE100750808E4F50CF50D758202120129C3E4A9
:101EF1009557FCE49558C454F0CCC4CC6CCC54F048
:101F0100CC6CFDEC24D7FCED3441FD8C098D0A75B8
:101F11000B80750810E4F50CF50D7582021201298C
:101F2100C3E49559FCE4955AC454F0CCC4CC6CCCB0
:101F310054F0CC6CFDEC24D7FCED3441FD8C098DC3
:101F41000A750B80750818E4F50CF50D75820212FF
:101F51000129806EE559455A604B750977750A422A
:101F6100750B80750810E4F50CF50D7582021201F0
:101F710029C3E49559FCE4955AC454F0CCC4CC6C03
:101F8100CC54F0CC6CFDEC24D7FCED3441FD8C0934
:101F91008D0A750B80750818E4F50CF50D75820234
:101FA100120129801DE55B455C6017750977750A8B
:101FB10042750B80750818E4F50CF50D7582021257
:101FC1000129C3E4955BFCE4955CC454F0CCC4CC1A
:101FD1006CCC54F0CC6CFDEC24D7FCED3441FD8C81
:101FE100098D0A750B80750820E4F50CF50D7582D5
:101FF100021201290231BEE92550FBEA3551FCAD3F
:1020010052EE2BFBEF3CFC8B828C838DF0123D5901
:10201100FBA3123D59FC30E703022103C2A1D2A266
:10202100E5554556602EAC55E556C454F0CCC4CCAC
:102031006CCC54F0CC6CFDEC24D7FCED3441FD8C20
:10204100098D0A750B80750830E4F50CF50D758264
:1020510002120129E55745587006E5554556602E8F
:10206100AC57E558C454F0CCC4CC6CCC54F0CC6C17
:10207100FDEC24D7FCED3441FD8C098D0A750B80F4
:10208100750838E4F50CF50D758202120129D2A10B
:10209100C2A2E559455A700CE55745587006E555F9
:1020A1004556602DAC59E55AC454F0CCC4CC6CCC27
:1020B10054F0CC6CFDEC24D7FCED3441FD8C098D42
:1020C1000A750B80E4F508F50CF50D758202120115
:1020D10029AC5BE55CC454F0CCC4CC6CCC54F0CCE2
:1020E1006CFDEC24D7FCED3441FD8C098D0A750B98
:1020F10080750808E4F50CF50D75820212012902BC
:1021010031BEE55745587003022191C2A1D2A27593
:102111000977750A42750B80750830E4F50CF50DE9
:10212100758202120129C3E49557FCE49558C45401
:10213100F0CCC4CC6CCC54F0CC6CFDEC24D7FCEDD1
:102141003441FD8C098D0A750B80750838E4F50C56
:10215100F50D758202120129D2A1C2A2C3E49559DB
:10216100FCE4955AC454F0CCC4CC6CCC54F0CC6C87
:10217100FDEC24D7FCED3441FD8C098D0A750B80F3
:10218100750818E4F50CF50D7582021201298078A5
:10219100E559455A6052C2A1D2A2750977750A4222
:1021A100750B80750838E4F50CF50D758202120186
:1021B10029D2A1C2A2C3E49559FCE4955AC454F0B2
:1021C100CCC4CC6CCC54F0CC6CFDEC24D7FCED34FD
:1021D10041FD8C098D0A750B80E4F508F50CF50DB0
:1021E1007582021201298020E55B455C601AD2A14B
:1021F100C2A2750977750A42750B80E4F508F50CE2
:10220100F50D758202120129C3E4955BFCE4955C2E
:10221100C454F0CCC4CC6CCC54F0CC6CFDEC24D7C1
:10222100FCED3441FD8C098D0A750B80750808E4BD
:10223100F50CF50D7582021201290231BED2A1C23F
:10224100A2E92550FBEA3551FCAD52EE2BFBEF3CE8
:10225100FC8B828C838DF0123D59FBA3123D59FCFE
:1022610030E703022346E5554556602EAC55E55649
:10227100C454F0CCC4CC6CCC54F0CC6CFDEC24D761
:10228100FCED3441FD8C098D0A750B80750818E44D
:10229100F50CF50D758202120129E55745587006B6
:1022A100E5554556602EAC57E558C454F0CCC4CC26
:1022B1006CCC54F0CC6CFDEC24D7FCED3441FD8C9E
:1022C100098D0A750B80750820E4F50CF50D7582F2
:1022D10002120129E559455A700CE5574558700617
:1022E100E5554556602EAC59E55AC454F0CCC4CCE2
:1022F1006CCC54F0CC6CFDEC24D7FCED3441FD8C5E
:10230100098D0A750B80750828E4F50CF50D7582A9
:1023110002120129AC5BE55CC454F0CCC4CC6CCC9A
:1023210054F0CC6CFDEC24D7FCED3441FD8C098DCF
:102331000A750B80750830E4F50CF50D75820212F3
:1023410001290231BEE557455870030223CC7509B6
:1023510077750A42750B80750818E4F50CF50D7553
:102361008202120129C3E49557FCE49558C454F044
:10237100CCC4CC6CCC54F0CC6CFDEC24D7FCED344B
:1023810041FD8C098D0A750B80750820E4F50CF56B
:102391000D758202120129C3E49559FCE4955AC4D2
:1023A10054F0CCC4CC6CCC54F0CC6CFDEC24D7FCF8
:1023B100ED3441FD8C098D0A750B80750828E4F513
:1023C1000CF50D758202120129806EE559455A609E
:1023D1004B750977750A42750B80750820E4F50C79
:1023E100F50D758202120129C3E49559FCE4955A51
:1023F100C454F0CCC4CC6CCC54F0CC6CFDEC24D7E0
:10240100FCED3441FD8C098D0A750B80750828E4BB
:10241100F50CF50D758202120129801DE55B455C05
:102421006017750977750A42750B80750828E4F500
:102431000CF50D758202120129C3E4955BFCE4954C
:102441005CC454F0CCC4CC6CCC54F0CC6CFDEC240A
:10245100D7FCED3441FD8C098D0A750B8075083070
:10246100E4F50CF50D7582021201290231BEC2A1FB
:10247100D2A2E92550FBEA3551FCAD52EE2BFBEF20
:102481003CFC8B828C838DF0123D59FBA3123D598C
:10249100FC30E703022577E5554556602EAC55E53E
:1024A10056C454F0CCC4CC6CCC54F0CC6CFDEC24B0
:1024B100D7FCED3441FD8C098D0A750B8075080838
:1024C100E4F50CF50D758204120129E557455870A4
:1024D10006E5554556602EAC57E558C454F0CCC4BA
:1024E100CC6CCC54F0CC6CFDEC24D7FCED3441FD2C
:1024F1008C098D0A750B80750810E4F50CF50D75C6
:102501008204120129E559455A700CE55745587066
:1025110006E5554556602EAC59E55AC454F0CCC475
:10252100CC6CCC54F0CC6CFDEC24D7FCED3441FDEB
:102531008C098D0A750B80750818E4F50CF50D757D
:102541008204120129AC5BE55CC454F0CCC4CC6CB0
:10255100CC54F0CC6CFDEC24D7FCED3441FD8C095E
:102561008D0A750B80750820E4F50CF50D75820454
:102571001201290231BEE557455870030225FD7548
:102581000977750A42750B80750808E4F50CF50D9D
:10259100758204120129C3E49557FCE49558C4548B
:1025A100F0CCC4CC6CCC54F0CC6CFDEC24D7FCED5D
:1025B1003441FD8C098D0A750B80750810E4F50C0A
:1025C100F50D758204120129C3E49559FCE4955A6D
:1025D100C454F0CCC4CC6CCC54F0CC6CFDEC24D7FE
:1025E100FCED3441FD8C098D0A750B80750818E4EA
:1025F100F50CF50D758204120129806EE559455AD5
:10260100604B750977750A42750B80750810E4F502
:102611000CF50D758204120129C3E49559FCE4956A
:102621005AC454F0CCC4CC6CCC54F0CC6CFDEC242A
:10263100D7FCED3441FD8C098D0A750B80750818A6
:10264100E4F50CF50D758204120129801DE55B4549
:102651005C6017750977750A42750B80750818E477
:10266100F50CF50D758204120129C3E4955BFCE4B8
:10267100955CC454F0CCC4CC6CCC54F0CC6CFDEC67
:1026810024D7FCED3441FD8C098D0A750B8075084A
:1026910020E4F50CF50D7582041201290231BEE921
:1026A1002550FBEA3551FCAD52EE2BFBEF3CFC8B88
:1026B100828C838DF0123D59FBA3123D59FC30E70A
:1026C100030227ABC2A1D2A2E5554556602EAC55F7
:1026D100E556C454F0CCC4CC6CCC54F0CC6CFDECBD
:1026E10024D7FCED3441FD8C098D0A750B807508EA
:1026F10030E4F50CF50D758204120129E5574558B2
:102701007006E5554556602EAC57E558C454F0CCDB
:10271100C4CC6CCC54F0CC6CFDEC24D7FCED344132
:10272100FD8C098D0A750B80750838E4F50CF50DE3
:10273100758204120129D2A1C2A2E559455A700C31
:10274100E55745587006E5554556602DAC59E55A93
:10275100C454F0CCC4CC6CCC54F0CC6CFDEC24D77C
:10276100FCED3441FD8C098D0A750B80E4F508F50B
:102771000CF50D758204120129AC5BE55CC454F0C3
:10278100CCC4CC6CCC54F0CC6CFDEC24D7FCED3437
:1027910041FD8C098D0A750B80750808E4F50CF56F
:1027A1000D7582041201290231BEE55745587003A7
:1027B100022839C2A1D2A2750977750A42750B8028
:1027C100750830E4F50CF50D758204120129C3E496
:1027D1009557FCE49558C454F0CCC4CC6CCC54F05F
:1027E100CC6CFDEC24D7FCED3441FD8C098D0A75D0
:1027F1000B80750838E4F50CF50D7582041201297A
:10280100D2A1C2A2C3E49559FCE4955AC454F0CCB8
:10281100C4CC6CCC54F0CC6CFDEC24D7FCED344131
:10282100FD8C098D0A750B80750818E4F50CF50D02
:102831007582041201298078E559455A6052C2A176
:10284100D2A2750977750A42750B80750838E4F5CF
:102851000CF50D758204120129D2A1C2A2C3E4951F
:1028610059FCE4955AC454F0CCC4CC6CCC54F0CC93
:102871006CFDEC24D7FCED3441FD8C098D0A750B00
:1028810080E4F508F50CF50D75820412012980200C
:10289100E55B455C601AD2A1C2A2750977750A424F
:1028A100750B80E4F508F50CF50D7582041201290C
:1028B100C3E4955BFCE4955CC454F0CCC4CC6CCC13
:1028C10054F0CC6CFDEC24D7FCED3441FD8C098D2A
:1028D1000A750B80750808E4F50CF50D7582041274
:1028E10001290231BED2A1C2A2E92550FBEA35512C
:1028F100FCAD52EE2BFBEF3CFC8B828C838DF012F6
:102901003D59FBA3123D59FC30E7030229EEE55581
:102911004556602EAC55E556C454F0CCC4CC6CCCB5
:1029210054F0CC6CFDEC24D7FCED3441FD8C098DC9
:102931000A750B80750818E4F50CF50D7582041203
:102941000129E55745587006E5554556602EAC57A7
:10295100E558C454F0CCC4CC6CCC54F0CC6CFDEC38
:1029610024D7FCED3441FD8C098D0A750B80750867
:1029710020E4F50CF50D758204120129E559455A3B
:10298100700CE55745587006E5554556602EAC5913
:10299100E55AC454F0CCC4CC6CCC54F0CC6CFDECF6
:1029A10024D7FCED3441FD8C098D0A750B80750827
:1029B10028E4F50CF50D758204120129AC5BE55C88
:1029C100C454F0CCC4CC6CCC54F0CC6CFDEC24D70A
:1029D100FCED3441FD8C098D0A750B80750830E4DE
:1029E100F50CF50D7582041201290231BEE557453A
:1029F100587003022A74750977750A42750B807540
:102A01000818E4F50CF50D758204120129C3E4954B
:102A110057FCE49558C454F0CCC4CC6CCC54F0CCE5
:102A21006CFDEC24D7FCED3441FD8C098D0A750B4E
:102A310080750820E4F50CF50D758204120129C397
:102A4100E49559FCE4955AC454F0CCC4CC6CCC54F4
:102A5100F0CC6CFDEC24D7FCED3441FD8C098D0AE2
:102A6100750B80750828E4F50CF50D7582041201CB
:102A710029806EE559455A604B750977750A42758B
:102A81000B80750820E4F50CF50D758204120129FF
:102A9100C3E49559FCE4955AC454F0CCC4CC6CCC35
:102AA10054F0CC6CFDEC24D7FCED3441FD8C098D48
:102AB1000A750B80750828E4F50CF50D7582041272
:102AC1000129801DE55B455C6017750977750A4230
:102AD100750B80750828E4F50CF50D75820412015B
:102AE10029C3E4955BFCE4955CC454F0CCC4CC6C84
:102AF100CC54F0CC6CFDEC24D7FCED3441FD8C09B9
:102B01008D0A750B80750830E4F50CF50D7582049E
:102B11001201290231BEC2A1D2A2E92550FBEA3538
:102B210051FCAD52EE2BFBEF3CFC8B828C838DF084
:102B3100123D59FBA3123D59FC30E703022C1FE55E
:102B4100554556602EAC55E556C454F0CCC4CC6CFA
:102B5100CC54F0CC6CFDEC24D7FCED3441FD8C0958
:102B61008D0A750B80750808E4F50CF50D75820664
:102B7100120129E55745587006E5554556602EACBA
:102B810057E558C454F0CCC4CC6CCC54F0CC6CFD9B
:102B9100EC24D7FCED3441FD8C098D0A750B807551
:102BA1000810E4F50CF50D758206120129E5594569
:102BB1005A700CE55745587006E5554556602EACE0
:102BC10059E55AC454F0CCC4CC6CCC54F0CC6CFD57
:102BD100EC24D7FCED3441FD8C098D0A750B807511
:102BE1000818E4F50CF50D758206120129AC5BE5B8
:102BF1005CC454F0CCC4CC6CCC54F0CC6CFDEC2453
:102C0100D7FCED3441FD8C098D0A750B80750820C8
:102C1100E4F50CF50D7582061201290231BEE55766
:102C210045587003022CA5750977750A42750B800A
:102C3100750808E4F50CF50D758206120129C3E447
:102C41009557FCE49558C454F0CCC4CC6CCC54F0EA
:102C5100CC6CFDEC24D7FCED3441FD8C098D0A755B
:102C61000B80750810E4F50CF50D7582061201292B
:102C7100C3E49559FCE4955AC454F0CCC4CC6CCC53
:102C810054F0CC6CFDEC24D7FCED3441FD8C098D66
:102C91000A750B80750818E4F50CF50D758206129E
:102CA1000129806EE559455A604B750977750A42CD
:102CB100750B80750810E4F50CF50D75820612018F
:102CC10029C3E49559FCE4955AC454F0CCC4CC6CA6
:102CD100CC54F0CC6CFDEC24D7FCED3441FD8C09D7
:102CE1008D0A750B80750818E4F50CF50D758206D3
:102CF100120129801DE55B455C6017750977750A2E
:102D010042750B80750818E4F50CF50D75820612F5
:102D11000129C3E4955BFCE4955CC454F0CCC4CCBC
:102D21006CCC54F0CC6CFDEC24D7FCED3441FD8C23
:102D3100098D0A750B80750820E4F50CF50D758277
:102D4100061201290231BEE92550FBEA3551FCADDD
:102D510052EE2BFBEF3CFC8B828C838DF0123D59A4
:102D6100FBA3123D59FC30E703022E53C2A1D2A2AC
:102D7100E5554556602EAC55E556C454F0CCC4CC4F
:102D81006CCC54F0CC6CFDEC24D7FCED3441FD8CC3
:102D9100098D0A750B80750830E4F50CF50D758207
:102DA10006120129E55745587006E5554556602E2E
:102DB100AC57E558C454F0CCC4CC6CCC54F0CC6CBA
:102DC100FDEC24D7FCED3441FD8C098D0A750B8097
:102DD100750838E4F50CF50D758206120129D2A1AA
:102DE100C2A2E559455A700CE55745587006E5559C
:102DF1004556602DAC59E55AC454F0CCC4CC6CCCCA
:102E010054F0CC6CFDEC24D7FCED3441FD8C098DE4
:102E11000A750B80E4F508F50CF50D7582061201B3
:102E210029AC5BE55CC454F0CCC4CC6CCC54F0CC84
:102E31006CFDEC24D7FCED3441FD8C098D0A750B3A
:102E410080750808E4F50CF50D758206120129025A
:102E510031BEE55745587003022EE1C2A1D2A275D9
:102E61000977750A42750B80750830E4F50CF50D8C
:102E7100758206120129C3E49557FCE49558C454A0
:102E8100F0CCC4CC6CCC54F0CC6CFDEC24D7FCED74
:102E91003441FD8C098D0A750B80750838E4F50CF9
:102EA100F50D758206120129D2A1C2A2C3E495597A
:102EB100FCE4955AC454F0CCC4CC6CCC54F0CC6C2A
:102EC100FDEC24D7FCED3441FD8C098D0A750B8096
:102ED100750818E4F50CF50D758206120129807844
:102EE100E559455A6052C2A1D2A2750977750A42C5
:102EF100750B80750838E4F50CF50D758206120125
:102F010029D2A1C2A2C3E49559FCE4955AC454F054
:102F1100CCC4CC6CCC54F0CC6CFDEC24D7FCED349F
:102F210041FD8C098D0A750B80E4F508F50CF50D52
:102F31007582061201298020E55B455C601AD2A1E9
:102F4100C2A2750977750A42750B80E4F508F50C84
:102F5100F50D758206120129C3E4955BFCE4955CCD
:102F6100C454F0CCC4CC6CCC54F0CC6CFDEC24D764
:102F7100FCED3441FD8C098D0A750B80750808E460
:102F8100F50CF50D7582061201290231BED2A1C2DE
:102F9100A2E92550F9EA3551FAAD52EE29FEEF3A90
:102FA100FF8D048E828F838CF0123D59FEA3123D5A
:102FB10059FF30E703023098E5554556602EAE556E
:102FC100E556C454F0CEC4CE6ECE54F0CE6EFFEEB4
:102FD10024D7FEEF3441FF8E098F0A750B807508E7
:102FE10018E4F50CF50D758206120129E5574558CF
:102FF1007006E5554556602EAE57E558C454F0CEDF
:10300100C4CE6ECE54F0CE6EFFEE24D7FEEF344127
:10301100FF8E098F0A750B80750820E4F50CF50DFC
:10302100758206120129E559455A700CE557455834
:103031007006E5554556602EAE59E55AC454F0CE9A
:10304100C4CE6ECE54F0CE6EFFEE24D7FEEF3441E7
:10305100FF8E098F0A750B80750828E4F50CF50DB4
:10306100758206120129AE5BE55CC454F0CEC4CE74
:103071006ECE54F0CE6EFFEE24D7FEEF3441FF8EBC
:10308100098F0A750B80750830E4F50CF50D758212
:10309100061201290231BEE5574558700302311E5F
:1030A100750977750A42750B80750818E4F50CF5FA
:1030B1000D758206120129C3E49557FEE49558C4A3
:1030C10054F0CEC4CE6ECE54F0CE6EFFEE24D7FEB9
:1030D100EF3441FF8E098F0A750B80750820E4F5E6
:1030E1000CF50D758206120129C3E49559FEE4958C
:1030F1005AC454F0CEC4CE6ECE54F0CE6EFFEE2440
:10310100D7FEEF3441FF8E098F0A750B80750828B1
:10311100E4F50CF50D758206120129806EE559451D
:103121005A604B750977750A42750B80750820E462
:10313100F50CF50D758206120129C3E49559FEE4DB
:10314100955AC454F0CEC4CE6ECE54F0CE6EFFEE7E
:1031510024D7FEEF3441FF8E098F0A750B80750865
:1031610028E4F50CF50D758206120129801DE55B39
:10317100455C6017750977750A42750B80750828DB
:10318100E4F50CF50D758206120129C3E4955BFE89
:10319100E4955CC454F0CEC4CE6ECE54F0CE6EFF36
:1031A100EE24D7FEEF3441FF8E098F0A750B80752F
:1031B1000830E4F50CF50D7582061201290553E47A
:1031C100B553020554C3E5539409E55464809480D2
:1031D1005003021838221201E27547017548009028
:1031E100000F75F040120BD01201E2E4F547F548EB
:1031F10090002175F040120BD01201E2E521250F5C
:10320100FEE5223510FF8E338F34E5232511FEE5CF
:10321100243512FF8E358F36E5252513FEE526353B
:1032210014FF8E378F38E5272515FEE5283516FF63
:103231008E398F3AE5292517FEE52A3518FF8E3B91
:103241008F3CE52B2519FEE52C351AFF8E3D8F3E6F
:10325100E52D251BFEE52E351CFF8E3F8F40E52F0A
:10326100251DFEE530351EFF8E418F42E531251FBC
:10327100FEE5323520FF8E438F44754E01754F00B8
:1032810090003375F0401215C7020B881201E275E8
:10329100470175480090000F75F040120BD01201E4
:1032A100E2E4F547F54890002175F040120BD01289
:1032B10001E2852165852266850F82851083123C96
:1032C100C6AE82AF83852765852866851182851202
:1032D10083C007C006123CC6AC82AD83D006D007BE
:1032E100EC2EFEED3FFF852D65852E6685138285CB
:1032F1001483C007C006123CC6AC82AD83D006D091
:1033010007EC2EFEED3FFF8E338F34852365852438
:1033110066850F82851083123CC6AE82AF838529F4
:1033210065852A66851182851283C007C006123C15
:10333100C6AC82AD83D006D007EC2EFEED3FFF85F3
:103341002F65853066851382851483C007C00612F8
:103351003CC6AC82AD83D006D007EC2EFEED3FFF1C
:103361008E358F36852565852666850F8285108386
:10337100123CC6AE82AF83852B65852C6685118292
:10338100851283C007C006123CC6AC82AD83D0064D
:10339100D007EC2EFEED3FFF853165853266851342
:1033A10082851483C007C006123CC6AC82AD83D0AF
:1033B10006D007EC2EFEED3FFF8E378F3885216555
:1033C100852266851582851683123CC6AE82AF833F
:1033D100852765852866851782851883C007C006FD
:1033E100123CC6AC82AD83D006D007EC2EFEED3F79
:1033F100FF852D65852E66851982851A83C007C0D4
:1034010006123CC6AC82AD83D006D007EC2EFEED91
:103411003FFF8E398F3A8523658524668515828520
:103421001683123CC6AE82AF83852965852A6685DF
:103431001782851883C007C006123CC6AC82AD83D3
:10344100D006D007EC2EFEED3FFF852F6585306657
:10345100851982851A83C007C006123CC6AC82ADAD
:1034610083D006D007EC2EFEED3FFF8E3B8F3C85CF
:103471002565852666851582851683123CC6AE8232
:10348100AF83852B65852C66851782851883C007D8
:10349100C006123CC6AC82AD83D006D007EC2EFE2E
:1034A100ED3FFF853165853266851982851A83C0B6
:1034B10007C006123CC6AC82AD83D006D007EC2E05
:1034C100FEED3FFF8E3D8F3E852165852266851B82
:1034D10082851C83123CC6AE82AF83852765852811
:1034E10066851D82851E83C007C006123CC6AC825C
:1034F100AD83D006D007EC2EFEED3FFF852D65850F
:103501002E66851F82852083C007C006123CC6AC8B
:1035110082AD83D006D007EC2EFEED3FFF8E3F8FAC
:1035210040852365852466851B82851C83123CC6E4
:10353100AE82AF83852965852A66851D82851E83B6
:10354100C007C006123CC6AC82AD83D006D007ECE2
:103551002EFEED3FFF852F65853066851F82852014
:1035610083C007C006123CC6AC82AD83D006D0072B
:10357100EC2EFEED3FFF8E418F4285256585266647
:10358100851B82851C83123CC6AE82AF83852B6569
:10359100852C66851D82851E83C007C006123CC628
:1035A100AC82AD83D006D007EC2EFEED3FFF853116
:1035B10065853266851F82852083C007C006123C5F
:1035C100C6AC82AD83D006D007EC2EFEED3FFF8E58
:1035D100438F44754E02754F0090003375F04012D1
:1035E10015C7020B881201E275470175480090006A
:1035F1000F75F040120BD01201E2851F6585206620
:10360100851782851883123CC6AE82AF8385196502
:10361100851A66851D82851E83C007C006123CC6B9
:10362100AC82AD83D006D007EEC39CF565EF9DF566
:1036310066850F82851083123CC6AE82AF83851FDB
:1036410065852066851582851683C007C006123CF4
:10365100C6AC82AD83851965851A66851B82851C7A
:1036610083C005C004123CC6AA82AB83D004D00536
:10367100ECC39AF565ED9BF566851182851283127F
:103681003CC6AC82AD83D006D007EEC39CFEEF9D55
:10369100FF851D65851E66851582851683C007C059
:1036A10006123CC6AC82AD83851765851866851BFD
:1036B10082851C83C005C004123CC6AA82AB83D09C
:1036C10004D005ECC39AF565ED9BF56685138285FB
:1036D1001483123CC6AC82AD83D006D007EC2EF524
:1036E1005FED3FF560C2A1D2A2750997750A4275D7
:1036F1000B80E4F508F50CF50DF582120129750929
:10370100E7750A42750B80750808E4F50CF50DF5AF
:1037110082120129750997750A42750B8075081087
:10372100E4F50CF50DF582120129750987750A4238
:10373100750B80750818E4F50CF50DF58212012959
:103741007565E8756603855F82856083123DABAC64
:1037510082AD83EC4D60348C02EDC454F0CAC4CA0E
:103761006ACA54F0CA6AFBEA24D7FAEB3441FB8AED
:10377100098B0A750B80750820E4F50CF50DF582AF
:10378100C005C004120129D004D005EC4D7042756A
:103791006564F566855F82856083C005C004123D5E
:1037A100ABAA82AB83D004D0058C658D6690000AEC
:1037B100C005C004C003C002123CC6AE82AF83D0B4
:1037C10002D003D004D005EAC39EFAEB9FFB4A6006
:1037D10070756564756600855F82856083C005C00C
:1037E10004123DABAE82AF83D004D0058C658D66EB
:1037F10090000AC007C006C005C004123CC6AA82D8
:10380100AB83D004D005D006D007EEC39AFEEF9B60
:10381100C454F0CEC4CE6ECE54F0CE6EFFEE24D79B
:10382100FEEF3441FF8E098F0A750B80750828E47D
:10383100F50CF50DF582C005C004120129D004D0A4
:1038410005EC4D6003023905756564756600855F99
:1038510082856083C005C004123DABAE82AF83D0C8
:1038610004D0058C658D6690000AC007C006C005AE
:10387100C004123CC6858261858362D004D005D024
:1038810006D007EEC39561FAEF9562FB4A70757534
:10389100650AF566855F82856083C007C006C0053D
:1038A100C004123DAB858263858364D004D0058C4E
:1038B100658D66900064C005C004123CC6AA82AB47
:1038C10083D004D005D006D007E563C39AFAE56436
:1038D1009BFBEEC39561F565EF9562F56690000A75
:1038E100C005C004C003C002123CC6AE82AF83D083
:1038F10002D003D004D005EAC39EFAEB9FFB4A70C5
:10390100030239C075650A756600855F828560832B
:10391100C005C004123DABAE82AF83D004D0058C8C
:10392100658D66900064C007C006C005C004123CE6
:10393100C6AA82AB83D004D005D006D007EEC39AC5
:10394100FEEF9BFF756564756600855F8285608308
:10395100C007C006C005C004123DABAA82AB83D02C
:1039610004D0058C658D6690000AC003C002123C2C
:10397100C6AC82AD83D002D003EAC39CF565EB9D52
:10398100F56690000A123CC6AC82AD83D006D00722
:10399100EEC39CFEEF9DC454F0CEC4CE6ECE54F067
:1039A100CE6EFFEE24D7FEEF3441FF8E098F0A75EC
:1039B1000B80750830E4F50CF50DF58212012975BF
:1039C100650A756600855F82856083123D75AE82EA
:1039D100E583C454F0CEC4CE6ECE54F0CE6EFFEE6D
:1039E10024D7FEEF3441FF8E098F0A750B807508CD
:1039F10038E4F50CF50DF582120129020B8812014C
:103A0100E275470175480090000F75F040120BD028
:103A11001201E2851F65852066851782851883124C
:103A21003CC6AE82AF83851965851A66851D828580
:103A31001E83C007C006123CC6AC82AD83D006D03F
:103A410007EEC39CFEEF9DFF8E338F34851F658586
:103A51002066851582851683123CC6AE82AF8385AA
:103A61001965851A66851B82851C83C007C00612ED
:103A71003CC6AC82AD83D006D007EEC39CFEEF9D61
:103A8100FFC3E49EFEE49FFF8E398F3A851D658555
:103A91001E66851582851683123CC6AE82AF83856C
:103AA1001765851866851B82851C83C007C00612B1
:103AB1003CC6AC82AD83D006D007EEC39CFEEF9D21
:103AC100FF8E3F8F40851F65852066851182851297
:103AD10083123CC6AE82AF83851365851466851D4E
:103AE10082851E83C007C006123CC6AC82AD83D05E
:103AF10006D007EEC39CFEEF9DFFC3E49EFEE49F4C
:103B0100FF8E358F36851F65852066850F8285106E
:103B110083123CC6AE82AF83851365851466851B0F
:103B210082851C83C007C006123CC6AC82AD83D01F
:103B310006D007EEC39CFEEF9DFF8E3B8F3C851D9B
:103B410065851E66850F82851083123CC6AE82AFE5
:103B510083851165851266851B82851C83C007C01C
:103B610006123CC6AC82AD83D006D007EEC39CFEE4
:103B7100EF9DFFC3E49EFEE49FFF8E418F428519B6
:103B810065851A66851182851283123CC6AE82AFA5
:103B910083851365851466851782851883C007C0E0
:103BA10006123CC6AC82AD83D006D007EEC39CFEA4
:103BB100EF9DFF8E378F38851965851A66850F82CF
:103BC100851083123CC6AE82AF838513658514666A
:103BD100851582851683C007C006123CC6AC82AD2E
:103BE10083D006D007EEC39CFEEF9DFFC3E49EFE8B
:103BF100E49FFF8E3D8F3E850F6585106685178298
:103C0100851883123CC6AE82AF838515658516661D
:103C1100851182851283C007C006123CC6AC82ADF5
:103C210083D006D007EEC39CFEEF9DFF8E438F44E9
:103C3100754E05754F0090003375F0401215C7029F
:103C41000B8822AE82AF837C007D00C3EC9EED9F8A
:103C510050147A0A7B001ABAFF011BEA4B70F70C69
:103C6100BC00E80D80E5227590F0AF905307F0E4B9
:103C7100BFF00104FE70F07590F0900064C0061270
:103C81003C44D006EE70E074F05590FF43070F8F6F
:103C910090AE9053060F5307F0EF2EFE7590F0AFE4
:0A3CA100905307F0BFF0F58E822269
:06003500E478FFF6D8FD9F
:100013007900E94400601B7A00904487780075A05A
:1000230000E493F2A308B8000205A0D9F4DAF2754C
:02003300A0FF2C
:103CAB0020F71130F6138883A88220F509F6A88334
:103CBB007583002280FEF280F5F022E5828565F0A7
:103CCB00A4C582C0F08566F0A4D0F025F0C583852D
:103CDB0065F0A42583F58322E565456660467A0188
:103CEB00E56525E0F565E566334012F566E58295F9
:103CFB0065E583956640030A80E6C3E56613F566C2
:103D0B00E56513F565C3E5829565F5F0E583956685
:103D1B004005F58385F082C3E56613F566E565130B
:103D2B00F565DAE1227A10E4FBFCE58225E0F58209
:103D3B00E58333F583EB33FBEC33FCEB9565F5F067
:0E3D4B00EC95664006FCABF0438201DADD2207
:10003B007800E84400600A790075A000E4F309D861
:10004B00FC7800E84400600C7900900000E4F0A319
:04005B00D8FCD9FAFA
:0D000600758166123DE3E582600302000390
:103D590020F71430F6148883A88220F507E6A88393
:103D690075830022E280F7E49322E022C2D5E5833D
:103D790030E70DD2D5E4C39582F582E49583F583C6
:103D8900E56630E70BE4C39565F565E49566F56688
:103D9900123CE330D50BE4C39582F582E49583F5B3
:103DA9008322C2D5E58330E70DD2D5E4C39582F5E8
:103DB90082E49583F583E56630E70DB2D5E4C395D2
:103DC90065F565E49566F566123D3030D50BE4C3BB
:0E3DD9009582F582E49583F58322758200229F
:00000001FF
